{"contracts/WillContract.sol":{"WillContract":{"abi":[{"inputs":[],"stateMutability":"nonpayable","type":"constructor"},{"inputs":[{"internalType":"string","name":"id","type":"string"},{"internalType":"address","name":"owner","type":"address"},{"internalType":"address[]","name":"_beneficiaries","type":"address[]"},{"internalType":"uint256[]","name":"_percentages","type":"uint256[]"}],"name":"createWill","outputs":[],"stateMutability":"nonpayable","type":"function"},{"inputs":[{"internalType":"string","name":"id","type":"string"}],"name":"deleteWill","outputs":[],"stateMutability":"nonpayable","type":"function"},{"inputs":[{"internalType":"string","name":"id","type":"string"}],"name":"executeWill","outputs":[],"stateMutability":"payable","type":"function"},{"inputs":[{"internalType":"string","name":"id","type":"string"}],"name":"getWill","outputs":[{"internalType":"address","name":"owner","type":"address"},{"internalType":"address[]","name":"beneficiaries","type":"address[]"},{"internalType":"uint256[]","name":"percentages","type":"uint256[]"},{"internalType":"bool","name":"validated","type":"bool"}],"stateMutability":"view","type":"function"},{"inputs":[{"internalType":"string","name":"id","type":"string"}],"name":"validateWill","outputs":[],"stateMutability":"nonpayable","type":"function"},{"inputs":[{"internalType":"bytes32","name":"","type":"bytes32"}],"name":"wills","outputs":[{"internalType":"address","name":"owner","type":"address"},{"internalType":"bool","name":"validated","type":"bool"}],"stateMutability":"view","type":"function"},{"stateMutability":"payable","type":"receive"}],"evm":{"bytecode":{"linkReferences":{},"object":"608060405234801561001057600080fd5b50610b3d806100206000396000f3fe6080604052600436106100595760003560e01c806347c8e84714610065578063596798d414610087578063bf06b8a81461009a578063d05a91ad146100d3578063d47a2a9e146100f3578063da4e83ff1461015557600080fd5b3661006057005b600080fd5b34801561007157600080fd5b50610085610080366004610827565b610175565b005b610085610095366004610827565b6101ca565b3480156100a657600080fd5b506100ba6100b5366004610827565b610394565b6040516100ca949392919061095f565b60405180910390f35b3480156100df57600080fd5b506100856100ee366004610827565b610494565b3480156100ff57600080fd5b5061013661010e36600461080e565b600060208190529081526040902080546003909101546001600160a01b039091169060ff1682565b604080516001600160a01b0390931683529015156020830152016100ca565b34801561016157600080fd5b50610085610170366004610864565b6104bf565b60006101808261061d565b600081815260208190526040812080546001600160a01b03191681559192506101ac600183018261063a565b6101ba60028301600061063a565b50600301805460ff191690555050565b60006101d58261061d565b600081815260208190526040902060038101549192509060ff166102395760405162461bcd60e51b815260206004820152601660248201527515da5b1b081b5d5cdd081899481d985b1a59185d195960521b60448201526064015b60405180910390fd5b6000805b60028301548110156102885782600201818154811061025e5761025e610adb565b9060005260206000200154826102749190610a51565b91508061028081610aaa565b91505061023d565b50806064146102d95760405162461bcd60e51b815260206004820152601a60248201527f70657263656e7461676573206d75737420746f74616c203130300000000000006044820152606401610230565b60005b600183015481101561038d576000606484600201838154811061030157610301610adb565b9060005260206000200154476103179190610a8b565b6103219190610a69565b905083600101828154811061033857610338610adb565b60009182526020822001546040516001600160a01b039091169183156108fc02918491818181858888f19350505050158015610378573d6000803e3d6000fd5b5050808061038590610aaa565b9150506102dc565b5050505050565b60006060806000806103a58661061d565b600081815260208181526040918290208054600382015460018301805486518187028101870190975280875296975092956001600160a01b03909216949293600287019360ff90921692859183018282801561042a57602002820191906000526020600020905b81546001600160a01b0316815260019091019060200180831161040c575b505050505092508180548060200260200160405190810160405280929190818152602001828054801561047c57602002820191906000526020600020905b815481526020019060010190808311610468575b50505050509150955095509550955050509193509193565b600061049f8261061d565b6000908152602081905260409020600301805460ff191660011790555050565b60006104ca8561061d565b6000818152602081905260409020549091506001600160a01b0316156105325760405162461bcd60e51b815260206004820181905260248201527f57696c6c2077697468207468697320494420616c7265616479206578697374736044820152606401610230565b81518351146105785760405162461bcd60e51b8152602060048201526012602482015271496e76616c696420696e707574206461746160701b6044820152606401610230565b604080516080810182526001600160a01b038681168252602080830187815283850187905260006060850181905286815280835294909420835181546001600160a01b031916931692909217825592518051929391926105de926001850192019061065b565b50604082015180516105fa9160028401916020909101906106c0565b50606091909101516003909101805460ff19169115159190911790555050505050565b805160009082906106315750600092915050565b50506020015190565b508054600082559060005260206000209081019061065891906106fb565b50565b8280548282559060005260206000209081019282156106b0579160200282015b828111156106b057825182546001600160a01b0319166001600160a01b0390911617825560209092019160019091019061067b565b506106bc9291506106fb565b5090565b8280548282559060005260206000209081019282156106b0579160200282015b828111156106b05782518255916020019190600101906106e0565b5b808211156106bc57600081556001016106fc565b80356001600160a01b038116811461072757600080fd5b919050565b600082601f83011261073d57600080fd5b8135602061075261074d83610a2d565b6109fc565b80838252828201915082860187848660051b890101111561077257600080fd5b60005b8581101561079157813584529284019290840190600101610775565b5090979650505050505050565b600082601f8301126107af57600080fd5b813567ffffffffffffffff8111156107c9576107c9610af1565b6107dc601f8201601f19166020016109fc565b8181528460208386010111156107f157600080fd5b816020850160208301376000918101602001919091529392505050565b60006020828403121561082057600080fd5b5035919050565b60006020828403121561083957600080fd5b813567ffffffffffffffff81111561085057600080fd5b61085c8482850161079e565b949350505050565b6000806000806080858703121561087a57600080fd5b843567ffffffffffffffff8082111561089257600080fd5b61089e8883890161079e565b9550602091506108af828801610710565b94506040870135818111156108c357600080fd5b8701601f810189136108d457600080fd5b80356108e261074d82610a2d565b8082825285820191508584018c878560051b870101111561090257600080fd5b600094505b8385101561092c5761091881610710565b835260019490940193918601918601610907565b509650505050606087013591508082111561094657600080fd5b506109538782880161072c565b91505092959194509250565b6001600160a01b0385811682526080602080840182905286519184018290526000928782019290919060a0860190855b818110156109ad57855185168352948301949183019160010161098f565b5050858103604087015287518082529082019350915080870160005b838110156109e5578151855293820193908201906001016109c9565b505050508315156060840152905095945050505050565b604051601f8201601f1916810167ffffffffffffffff81118282101715610a2557610a25610af1565b604052919050565b600067ffffffffffffffff821115610a4757610a47610af1565b5060051b60200190565b60008219821115610a6457610a64610ac5565b500190565b600082610a8657634e487b7160e01b600052601260045260246000fd5b500490565b6000816000190483118215151615610aa557610aa5610ac5565b500290565b6000600019821415610abe57610abe610ac5565b5060010190565b634e487b7160e01b600052601160045260246000fd5b634e487b7160e01b600052603260045260246000fd5b634e487b7160e01b600052604160045260246000fdfea2646970667358221220d69e28a2288a99e66ff6390ed2dbe13d38752a8f5a4d515f02a579be89e99ed164736f6c63430008070033","opcodes":"PUSH1 0x80 PUSH1 0x40 MSTORE CALLVALUE DUP1 ISZERO PUSH2 0x10 JUMPI PUSH1 0x0 DUP1 REVERT JUMPDEST POP PUSH2 0xB3D DUP1 PUSH2 0x20 PUSH1 0x0 CODECOPY PUSH1 0x0 RETURN INVALID PUSH1 0x80 PUSH1 0x40 MSTORE PUSH1 0x4 CALLDATASIZE LT PUSH2 0x59 JUMPI PUSH1 0x0 CALLDATALOAD PUSH1 0xE0 SHR DUP1 PUSH4 0x47C8E847 EQ PUSH2 0x65 JUMPI DUP1 PUSH4 0x596798D4 EQ PUSH2 0x87 JUMPI DUP1 PUSH4 0xBF06B8A8 EQ PUSH2 0x9A JUMPI DUP1 PUSH4 0xD05A91AD EQ PUSH2 0xD3 JUMPI DUP1 PUSH4 0xD47A2A9E EQ PUSH2 0xF3 JUMPI DUP1 PUSH4 0xDA4E83FF EQ PUSH2 0x155 JUMPI PUSH1 0x0 DUP1 REVERT JUMPDEST CALLDATASIZE PUSH2 0x60 JUMPI STOP JUMPDEST PUSH1 0x0 DUP1 REVERT JUMPDEST CALLVALUE DUP1 ISZERO PUSH2 0x71 JUMPI PUSH1 0x0 DUP1 REVERT JUMPDEST POP PUSH2 0x85 PUSH2 0x80 CALLDATASIZE PUSH1 0x4 PUSH2 0x827 JUMP JUMPDEST PUSH2 0x175 JUMP JUMPDEST STOP JUMPDEST PUSH2 0x85 PUSH2 0x95 CALLDATASIZE PUSH1 0x4 PUSH2 0x827 JUMP JUMPDEST PUSH2 0x1CA JUMP JUMPDEST CALLVALUE DUP1 ISZERO PUSH2 0xA6 JUMPI PUSH1 0x0 DUP1 REVERT JUMPDEST POP PUSH2 0xBA PUSH2 0xB5 CALLDATASIZE PUSH1 0x4 PUSH2 0x827 JUMP JUMPDEST PUSH2 0x394 JUMP JUMPDEST PUSH1 0x40 MLOAD PUSH2 0xCA SWAP5 SWAP4 SWAP3 SWAP2 SWAP1 PUSH2 0x95F JUMP JUMPDEST PUSH1 0x40 MLOAD DUP1 SWAP2 SUB SWAP1 RETURN JUMPDEST CALLVALUE DUP1 ISZERO PUSH2 0xDF JUMPI PUSH1 0x0 DUP1 REVERT JUMPDEST POP PUSH2 0x85 PUSH2 0xEE CALLDATASIZE PUSH1 0x4 PUSH2 0x827 JUMP JUMPDEST PUSH2 0x494 JUMP JUMPDEST CALLVALUE DUP1 ISZERO PUSH2 0xFF JUMPI PUSH1 0x0 DUP1 REVERT JUMPDEST POP PUSH2 0x136 PUSH2 0x10E CALLDATASIZE PUSH1 0x4 PUSH2 0x80E JUMP JUMPDEST PUSH1 0x0 PUSH1 0x20 DUP2 SWAP1 MSTORE SWAP1 DUP2 MSTORE PUSH1 0x40 SWAP1 KECCAK256 DUP1 SLOAD PUSH1 0x3 SWAP1 SWAP2 ADD SLOAD PUSH1 0x1 PUSH1 0x1 PUSH1 0xA0 SHL SUB SWAP1 SWAP2 AND SWAP1 PUSH1 0xFF AND DUP3 JUMP JUMPDEST PUSH1 0x40 DUP1 MLOAD PUSH1 0x1 PUSH1 0x1 PUSH1 0xA0 SHL SUB SWAP1 SWAP4 AND DUP4 MSTORE SWAP1 ISZERO ISZERO PUSH1 0x20 DUP4 ADD MSTORE ADD PUSH2 0xCA JUMP JUMPDEST CALLVALUE DUP1 ISZERO PUSH2 0x161 JUMPI PUSH1 0x0 DUP1 REVERT JUMPDEST POP PUSH2 0x85 PUSH2 0x170 CALLDATASIZE PUSH1 0x4 PUSH2 0x864 JUMP JUMPDEST PUSH2 0x4BF JUMP JUMPDEST PUSH1 0x0 PUSH2 0x180 DUP3 PUSH2 0x61D JUMP JUMPDEST PUSH1 0x0 DUP2 DUP2 MSTORE PUSH1 0x20 DUP2 SWAP1 MSTORE PUSH1 0x40 DUP2 KECCAK256 DUP1 SLOAD PUSH1 0x1 PUSH1 0x1 PUSH1 0xA0 SHL SUB NOT AND DUP2 SSTORE SWAP2 SWAP3 POP PUSH2 0x1AC PUSH1 0x1 DUP4 ADD DUP3 PUSH2 0x63A JUMP JUMPDEST PUSH2 0x1BA PUSH1 0x2 DUP4 ADD PUSH1 0x0 PUSH2 0x63A JUMP JUMPDEST POP PUSH1 0x3 ADD DUP1 SLOAD PUSH1 0xFF NOT AND SWAP1 SSTORE POP POP JUMP JUMPDEST PUSH1 0x0 PUSH2 0x1D5 DUP3 PUSH2 0x61D JUMP JUMPDEST PUSH1 0x0 DUP2 DUP2 MSTORE PUSH1 0x20 DUP2 SWAP1 MSTORE PUSH1 0x40 SWAP1 KECCAK256 PUSH1 0x3 DUP2 ADD SLOAD SWAP2 SWAP3 POP SWAP1 PUSH1 0xFF AND PUSH2 0x239 JUMPI PUSH1 0x40 MLOAD PUSH3 0x461BCD PUSH1 0xE5 SHL DUP2 MSTORE PUSH1 0x20 PUSH1 0x4 DUP3 ADD MSTORE PUSH1 0x16 PUSH1 0x24 DUP3 ADD MSTORE PUSH22 0x15DA5B1B081B5D5CDD081899481D985B1A59185D1959 PUSH1 0x52 SHL PUSH1 0x44 DUP3 ADD MSTORE PUSH1 0x64 ADD JUMPDEST PUSH1 0x40 MLOAD DUP1 SWAP2 SUB SWAP1 REVERT JUMPDEST PUSH1 0x0 DUP1 JUMPDEST PUSH1 0x2 DUP4 ADD SLOAD DUP2 LT ISZERO PUSH2 0x288 JUMPI DUP3 PUSH1 0x2 ADD DUP2 DUP2 SLOAD DUP2 LT PUSH2 0x25E JUMPI PUSH2 0x25E PUSH2 0xADB JUMP JUMPDEST SWAP1 PUSH1 0x0 MSTORE PUSH1 0x20 PUSH1 0x0 KECCAK256 ADD SLOAD DUP3 PUSH2 0x274 SWAP2 SWAP1 PUSH2 0xA51 JUMP JUMPDEST SWAP2 POP DUP1 PUSH2 0x280 DUP2 PUSH2 0xAAA JUMP JUMPDEST SWAP2 POP POP PUSH2 0x23D JUMP JUMPDEST POP DUP1 PUSH1 0x64 EQ PUSH2 0x2D9 JUMPI PUSH1 0x40 MLOAD PUSH3 0x461BCD PUSH1 0xE5 SHL DUP2 MSTORE PUSH1 0x20 PUSH1 0x4 DUP3 ADD MSTORE PUSH1 0x1A PUSH1 0x24 DUP3 ADD MSTORE PUSH32 0x70657263656E7461676573206D75737420746F74616C20313030000000000000 PUSH1 0x44 DUP3 ADD MSTORE PUSH1 0x64 ADD PUSH2 0x230 JUMP JUMPDEST PUSH1 0x0 JUMPDEST PUSH1 0x1 DUP4 ADD SLOAD DUP2 LT ISZERO PUSH2 0x38D JUMPI PUSH1 0x0 PUSH1 0x64 DUP5 PUSH1 0x2 ADD DUP4 DUP2 SLOAD DUP2 LT PUSH2 0x301 JUMPI PUSH2 0x301 PUSH2 0xADB JUMP JUMPDEST SWAP1 PUSH1 0x0 MSTORE PUSH1 0x20 PUSH1 0x0 KECCAK256 ADD SLOAD SELFBALANCE PUSH2 0x317 SWAP2 SWAP1 PUSH2 0xA8B JUMP JUMPDEST PUSH2 0x321 SWAP2 SWAP1 PUSH2 0xA69 JUMP JUMPDEST SWAP1 POP DUP4 PUSH1 0x1 ADD DUP3 DUP2 SLOAD DUP2 LT PUSH2 0x338 JUMPI PUSH2 0x338 PUSH2 0xADB JUMP JUMPDEST PUSH1 0x0 SWAP2 DUP3 MSTORE PUSH1 0x20 DUP3 KECCAK256 ADD SLOAD PUSH1 0x40 MLOAD PUSH1 0x1 PUSH1 0x1 PUSH1 0xA0 SHL SUB SWAP1 SWAP2 AND SWAP2 DUP4 ISZERO PUSH2 0x8FC MUL SWAP2 DUP5 SWAP2 DUP2 DUP2 DUP2 DUP6 DUP9 DUP9 CALL SWAP4 POP POP POP POP ISZERO DUP1 ISZERO PUSH2 0x378 JUMPI RETURNDATASIZE PUSH1 0x0 DUP1 RETURNDATACOPY RETURNDATASIZE PUSH1 0x0 REVERT JUMPDEST POP POP DUP1 DUP1 PUSH2 0x385 SWAP1 PUSH2 0xAAA JUMP JUMPDEST SWAP2 POP POP PUSH2 0x2DC JUMP JUMPDEST POP POP POP POP POP JUMP JUMPDEST PUSH1 0x0 PUSH1 0x60 DUP1 PUSH1 0x0 DUP1 PUSH2 0x3A5 DUP7 PUSH2 0x61D JUMP JUMPDEST PUSH1 0x0 DUP2 DUP2 MSTORE PUSH1 0x20 DUP2 DUP2 MSTORE PUSH1 0x40 SWAP2 DUP3 SWAP1 KECCAK256 DUP1 SLOAD PUSH1 0x3 DUP3 ADD SLOAD PUSH1 0x1 DUP4 ADD DUP1 SLOAD DUP7 MLOAD DUP2 DUP8 MUL DUP2 ADD DUP8 ADD SWAP1 SWAP8 MSTORE DUP1 DUP8 MSTORE SWAP7 SWAP8 POP SWAP3 SWAP6 PUSH1 0x1 PUSH1 0x1 PUSH1 0xA0 SHL SUB SWAP1 SWAP3 AND SWAP5 SWAP3 SWAP4 PUSH1 0x2 DUP8 ADD SWAP4 PUSH1 0xFF SWAP1 SWAP3 AND SWAP3 DUP6 SWAP2 DUP4 ADD DUP3 DUP3 DUP1 ISZERO PUSH2 0x42A JUMPI PUSH1 0x20 MUL DUP3 ADD SWAP2 SWAP1 PUSH1 0x0 MSTORE PUSH1 0x20 PUSH1 0x0 KECCAK256 SWAP1 JUMPDEST DUP2 SLOAD PUSH1 0x1 PUSH1 0x1 PUSH1 0xA0 SHL SUB AND DUP2 MSTORE PUSH1 0x1 SWAP1 SWAP2 ADD SWAP1 PUSH1 0x20 ADD DUP1 DUP4 GT PUSH2 0x40C JUMPI JUMPDEST POP POP POP POP POP SWAP3 POP DUP2 DUP1 SLOAD DUP1 PUSH1 0x20 MUL PUSH1 0x20 ADD PUSH1 0x40 MLOAD SWAP1 DUP2 ADD PUSH1 0x40 MSTORE DUP1 SWAP3 SWAP2 SWAP1 DUP2 DUP2 MSTORE PUSH1 0x20 ADD DUP3 DUP1 SLOAD DUP1 ISZERO PUSH2 0x47C JUMPI PUSH1 0x20 MUL DUP3 ADD SWAP2 SWAP1 PUSH1 0x0 MSTORE PUSH1 0x20 PUSH1 0x0 KECCAK256 SWAP1 JUMPDEST DUP2 SLOAD DUP2 MSTORE PUSH1 0x20 ADD SWAP1 PUSH1 0x1 ADD SWAP1 DUP1 DUP4 GT PUSH2 0x468 JUMPI JUMPDEST POP POP POP POP POP SWAP2 POP SWAP6 POP SWAP6 POP SWAP6 POP SWAP6 POP POP POP SWAP2 SWAP4 POP SWAP2 SWAP4 JUMP JUMPDEST PUSH1 0x0 PUSH2 0x49F DUP3 PUSH2 0x61D JUMP JUMPDEST PUSH1 0x0 SWAP1 DUP2 MSTORE PUSH1 0x20 DUP2 SWAP1 MSTORE PUSH1 0x40 SWAP1 KECCAK256 PUSH1 0x3 ADD DUP1 SLOAD PUSH1 0xFF NOT AND PUSH1 0x1 OR SWAP1 SSTORE POP POP JUMP JUMPDEST PUSH1 0x0 PUSH2 0x4CA DUP6 PUSH2 0x61D JUMP JUMPDEST PUSH1 0x0 DUP2 DUP2 MSTORE PUSH1 0x20 DUP2 SWAP1 MSTORE PUSH1 0x40 SWAP1 KECCAK256 SLOAD SWAP1 SWAP2 POP PUSH1 0x1 PUSH1 0x1 PUSH1 0xA0 SHL SUB AND ISZERO PUSH2 0x532 JUMPI PUSH1 0x40 MLOAD PUSH3 0x461BCD PUSH1 0xE5 SHL DUP2 MSTORE PUSH1 0x20 PUSH1 0x4 DUP3 ADD DUP2 SWAP1 MSTORE PUSH1 0x24 DUP3 ADD MSTORE PUSH32 0x57696C6C2077697468207468697320494420616C726561647920657869737473 PUSH1 0x44 DUP3 ADD MSTORE PUSH1 0x64 ADD PUSH2 0x230 JUMP JUMPDEST DUP2 MLOAD DUP4 MLOAD EQ PUSH2 0x578 JUMPI PUSH1 0x40 MLOAD PUSH3 0x461BCD PUSH1 0xE5 SHL DUP2 MSTORE PUSH1 0x20 PUSH1 0x4 DUP3 ADD MSTORE PUSH1 0x12 PUSH1 0x24 DUP3 ADD MSTORE PUSH18 0x496E76616C696420696E7075742064617461 PUSH1 0x70 SHL PUSH1 0x44 DUP3 ADD MSTORE PUSH1 0x64 ADD PUSH2 0x230 JUMP JUMPDEST PUSH1 0x40 DUP1 MLOAD PUSH1 0x80 DUP2 ADD DUP3 MSTORE PUSH1 0x1 PUSH1 0x1 PUSH1 0xA0 SHL SUB DUP7 DUP2 AND DUP3 MSTORE PUSH1 0x20 DUP1 DUP4 ADD DUP8 DUP2 MSTORE DUP4 DUP6 ADD DUP8 SWAP1 MSTORE PUSH1 0x0 PUSH1 0x60 DUP6 ADD DUP2 SWAP1 MSTORE DUP7 DUP2 MSTORE DUP1 DUP4 MSTORE SWAP5 SWAP1 SWAP5 KECCAK256 DUP4 MLOAD DUP2 SLOAD PUSH1 0x1 PUSH1 0x1 PUSH1 0xA0 SHL SUB NOT AND SWAP4 AND SWAP3 SWAP1 SWAP3 OR DUP3 SSTORE SWAP3 MLOAD DUP1 MLOAD SWAP3 SWAP4 SWAP2 SWAP3 PUSH2 0x5DE SWAP3 PUSH1 0x1 DUP6 ADD SWAP3 ADD SWAP1 PUSH2 0x65B JUMP JUMPDEST POP PUSH1 0x40 DUP3 ADD MLOAD DUP1 MLOAD PUSH2 0x5FA SWAP2 PUSH1 0x2 DUP5 ADD SWAP2 PUSH1 0x20 SWAP1 SWAP2 ADD SWAP1 PUSH2 0x6C0 JUMP JUMPDEST POP PUSH1 0x60 SWAP2 SWAP1 SWAP2 ADD MLOAD PUSH1 0x3 SWAP1 SWAP2 ADD DUP1 SLOAD PUSH1 0xFF NOT AND SWAP2 ISZERO ISZERO SWAP2 SWAP1 SWAP2 OR SWAP1 SSTORE POP POP POP POP POP JUMP JUMPDEST DUP1 MLOAD PUSH1 0x0 SWAP1 DUP3 SWAP1 PUSH2 0x631 JUMPI POP PUSH1 0x0 SWAP3 SWAP2 POP POP JUMP JUMPDEST POP POP PUSH1 0x20 ADD MLOAD SWAP1 JUMP JUMPDEST POP DUP1 SLOAD PUSH1 0x0 DUP3 SSTORE SWAP1 PUSH1 0x0 MSTORE PUSH1 0x20 PUSH1 0x0 KECCAK256 SWAP1 DUP2 ADD SWAP1 PUSH2 0x658 SWAP2 SWAP1 PUSH2 0x6FB JUMP JUMPDEST POP JUMP JUMPDEST DUP3 DUP1 SLOAD DUP3 DUP3 SSTORE SWAP1 PUSH1 0x0 MSTORE PUSH1 0x20 PUSH1 0x0 KECCAK256 SWAP1 DUP2 ADD SWAP3 DUP3 ISZERO PUSH2 0x6B0 JUMPI SWAP2 PUSH1 0x20 MUL DUP3 ADD JUMPDEST DUP3 DUP2 GT ISZERO PUSH2 0x6B0 JUMPI DUP3 MLOAD DUP3 SLOAD PUSH1 0x1 PUSH1 0x1 PUSH1 0xA0 SHL SUB NOT AND PUSH1 0x1 PUSH1 0x1 PUSH1 0xA0 SHL SUB SWAP1 SWAP2 AND OR DUP3 SSTORE PUSH1 0x20 SWAP1 SWAP3 ADD SWAP2 PUSH1 0x1 SWAP1 SWAP2 ADD SWAP1 PUSH2 0x67B JUMP JUMPDEST POP PUSH2 0x6BC SWAP3 SWAP2 POP PUSH2 0x6FB JUMP JUMPDEST POP SWAP1 JUMP JUMPDEST DUP3 DUP1 SLOAD DUP3 DUP3 SSTORE SWAP1 PUSH1 0x0 MSTORE PUSH1 0x20 PUSH1 0x0 KECCAK256 SWAP1 DUP2 ADD SWAP3 DUP3 ISZERO PUSH2 0x6B0 JUMPI SWAP2 PUSH1 0x20 MUL DUP3 ADD JUMPDEST DUP3 DUP2 GT ISZERO PUSH2 0x6B0 JUMPI DUP3 MLOAD DUP3 SSTORE SWAP2 PUSH1 0x20 ADD SWAP2 SWAP1 PUSH1 0x1 ADD SWAP1 PUSH2 0x6E0 JUMP JUMPDEST JUMPDEST DUP1 DUP3 GT ISZERO PUSH2 0x6BC JUMPI PUSH1 0x0 DUP2 SSTORE PUSH1 0x1 ADD PUSH2 0x6FC JUMP JUMPDEST DUP1 CALLDATALOAD PUSH1 0x1 PUSH1 0x1 PUSH1 0xA0 SHL SUB DUP2 AND DUP2 EQ PUSH2 0x727 JUMPI PUSH1 0x0 DUP1 REVERT JUMPDEST SWAP2 SWAP1 POP JUMP JUMPDEST PUSH1 0x0 DUP3 PUSH1 0x1F DUP4 ADD SLT PUSH2 0x73D JUMPI PUSH1 0x0 DUP1 REVERT JUMPDEST DUP2 CALLDATALOAD PUSH1 0x20 PUSH2 0x752 PUSH2 0x74D DUP4 PUSH2 0xA2D JUMP JUMPDEST PUSH2 0x9FC JUMP JUMPDEST DUP1 DUP4 DUP3 MSTORE DUP3 DUP3 ADD SWAP2 POP DUP3 DUP7 ADD DUP8 DUP5 DUP7 PUSH1 0x5 SHL DUP10 ADD ADD GT ISZERO PUSH2 0x772 JUMPI PUSH1 0x0 DUP1 REVERT JUMPDEST PUSH1 0x0 JUMPDEST DUP6 DUP2 LT ISZERO PUSH2 0x791 JUMPI DUP2 CALLDATALOAD DUP5 MSTORE SWAP3 DUP5 ADD SWAP3 SWAP1 DUP5 ADD SWAP1 PUSH1 0x1 ADD PUSH2 0x775 JUMP JUMPDEST POP SWAP1 SWAP8 SWAP7 POP POP POP POP POP POP POP JUMP JUMPDEST PUSH1 0x0 DUP3 PUSH1 0x1F DUP4 ADD SLT PUSH2 0x7AF JUMPI PUSH1 0x0 DUP1 REVERT JUMPDEST DUP2 CALLDATALOAD PUSH8 0xFFFFFFFFFFFFFFFF DUP2 GT ISZERO PUSH2 0x7C9 JUMPI PUSH2 0x7C9 PUSH2 0xAF1 JUMP JUMPDEST PUSH2 0x7DC PUSH1 0x1F DUP3 ADD PUSH1 0x1F NOT AND PUSH1 0x20 ADD PUSH2 0x9FC JUMP JUMPDEST DUP2 DUP2 MSTORE DUP5 PUSH1 0x20 DUP4 DUP7 ADD ADD GT ISZERO PUSH2 0x7F1 JUMPI PUSH1 0x0 DUP1 REVERT JUMPDEST DUP2 PUSH1 0x20 DUP6 ADD PUSH1 0x20 DUP4 ADD CALLDATACOPY PUSH1 0x0 SWAP2 DUP2 ADD PUSH1 0x20 ADD SWAP2 SWAP1 SWAP2 MSTORE SWAP4 SWAP3 POP POP POP JUMP JUMPDEST PUSH1 0x0 PUSH1 0x20 DUP3 DUP5 SUB SLT ISZERO PUSH2 0x820 JUMPI PUSH1 0x0 DUP1 REVERT JUMPDEST POP CALLDATALOAD SWAP2 SWAP1 POP JUMP JUMPDEST PUSH1 0x0 PUSH1 0x20 DUP3 DUP5 SUB SLT ISZERO PUSH2 0x839 JUMPI PUSH1 0x0 DUP1 REVERT JUMPDEST DUP2 CALLDATALOAD PUSH8 0xFFFFFFFFFFFFFFFF DUP2 GT ISZERO PUSH2 0x850 JUMPI PUSH1 0x0 DUP1 REVERT JUMPDEST PUSH2 0x85C DUP5 DUP3 DUP6 ADD PUSH2 0x79E JUMP JUMPDEST SWAP5 SWAP4 POP POP POP POP JUMP JUMPDEST PUSH1 0x0 DUP1 PUSH1 0x0 DUP1 PUSH1 0x80 DUP6 DUP8 SUB SLT ISZERO PUSH2 0x87A JUMPI PUSH1 0x0 DUP1 REVERT JUMPDEST DUP5 CALLDATALOAD PUSH8 0xFFFFFFFFFFFFFFFF DUP1 DUP3 GT ISZERO PUSH2 0x892 JUMPI PUSH1 0x0 DUP1 REVERT JUMPDEST PUSH2 0x89E DUP9 DUP4 DUP10 ADD PUSH2 0x79E JUMP JUMPDEST SWAP6 POP PUSH1 0x20 SWAP2 POP PUSH2 0x8AF DUP3 DUP9 ADD PUSH2 0x710 JUMP JUMPDEST SWAP5 POP PUSH1 0x40 DUP8 ADD CALLDATALOAD DUP2 DUP2 GT ISZERO PUSH2 0x8C3 JUMPI PUSH1 0x0 DUP1 REVERT JUMPDEST DUP8 ADD PUSH1 0x1F DUP2 ADD DUP10 SGT PUSH2 0x8D4 JUMPI PUSH1 0x0 DUP1 REVERT JUMPDEST DUP1 CALLDATALOAD PUSH2 0x8E2 PUSH2 0x74D DUP3 PUSH2 0xA2D JUMP JUMPDEST DUP1 DUP3 DUP3 MSTORE DUP6 DUP3 ADD SWAP2 POP DUP6 DUP5 ADD DUP13 DUP8 DUP6 PUSH1 0x5 SHL DUP8 ADD ADD GT ISZERO PUSH2 0x902 JUMPI PUSH1 0x0 DUP1 REVERT JUMPDEST PUSH1 0x0 SWAP5 POP JUMPDEST DUP4 DUP6 LT ISZERO PUSH2 0x92C JUMPI PUSH2 0x918 DUP2 PUSH2 0x710 JUMP JUMPDEST DUP4 MSTORE PUSH1 0x1 SWAP5 SWAP1 SWAP5 ADD SWAP4 SWAP2 DUP7 ADD SWAP2 DUP7 ADD PUSH2 0x907 JUMP JUMPDEST POP SWAP7 POP POP POP POP PUSH1 0x60 DUP8 ADD CALLDATALOAD SWAP2 POP DUP1 DUP3 GT ISZERO PUSH2 0x946 JUMPI PUSH1 0x0 DUP1 REVERT JUMPDEST POP PUSH2 0x953 DUP8 DUP3 DUP9 ADD PUSH2 0x72C JUMP JUMPDEST SWAP2 POP POP SWAP3 SWAP6 SWAP2 SWAP5 POP SWAP3 POP JUMP JUMPDEST PUSH1 0x1 PUSH1 0x1 PUSH1 0xA0 SHL SUB DUP6 DUP2 AND DUP3 MSTORE PUSH1 0x80 PUSH1 0x20 DUP1 DUP5 ADD DUP3 SWAP1 MSTORE DUP7 MLOAD SWAP2 DUP5 ADD DUP3 SWAP1 MSTORE PUSH1 0x0 SWAP3 DUP8 DUP3 ADD SWAP3 SWAP1 SWAP2 SWAP1 PUSH1 0xA0 DUP7 ADD SWAP1 DUP6 JUMPDEST DUP2 DUP2 LT ISZERO PUSH2 0x9AD JUMPI DUP6 MLOAD DUP6 AND DUP4 MSTORE SWAP5 DUP4 ADD SWAP5 SWAP2 DUP4 ADD SWAP2 PUSH1 0x1 ADD PUSH2 0x98F JUMP JUMPDEST POP POP DUP6 DUP2 SUB PUSH1 0x40 DUP8 ADD MSTORE DUP8 MLOAD DUP1 DUP3 MSTORE SWAP1 DUP3 ADD SWAP4 POP SWAP2 POP DUP1 DUP8 ADD PUSH1 0x0 JUMPDEST DUP4 DUP2 LT ISZERO PUSH2 0x9E5 JUMPI DUP2 MLOAD DUP6 MSTORE SWAP4 DUP3 ADD SWAP4 SWAP1 DUP3 ADD SWAP1 PUSH1 0x1 ADD PUSH2 0x9C9 JUMP JUMPDEST POP POP POP POP DUP4 ISZERO ISZERO PUSH1 0x60 DUP5 ADD MSTORE SWAP1 POP SWAP6 SWAP5 POP POP POP POP POP JUMP JUMPDEST PUSH1 0x40 MLOAD PUSH1 0x1F DUP3 ADD PUSH1 0x1F NOT AND DUP2 ADD PUSH8 0xFFFFFFFFFFFFFFFF DUP2 GT DUP3 DUP3 LT OR ISZERO PUSH2 0xA25 JUMPI PUSH2 0xA25 PUSH2 0xAF1 JUMP JUMPDEST PUSH1 0x40 MSTORE SWAP2 SWAP1 POP JUMP JUMPDEST PUSH1 0x0 PUSH8 0xFFFFFFFFFFFFFFFF DUP3 GT ISZERO PUSH2 0xA47 JUMPI PUSH2 0xA47 PUSH2 0xAF1 JUMP JUMPDEST POP PUSH1 0x5 SHL PUSH1 0x20 ADD SWAP1 JUMP JUMPDEST PUSH1 0x0 DUP3 NOT DUP3 GT ISZERO PUSH2 0xA64 JUMPI PUSH2 0xA64 PUSH2 0xAC5 JUMP JUMPDEST POP ADD SWAP1 JUMP JUMPDEST PUSH1 0x0 DUP3 PUSH2 0xA86 JUMPI PUSH4 0x4E487B71 PUSH1 0xE0 SHL PUSH1 0x0 MSTORE PUSH1 0x12 PUSH1 0x4 MSTORE PUSH1 0x24 PUSH1 0x0 REVERT JUMPDEST POP DIV SWAP1 JUMP JUMPDEST PUSH1 0x0 DUP2 PUSH1 0x0 NOT DIV DUP4 GT DUP3 ISZERO ISZERO AND ISZERO PUSH2 0xAA5 JUMPI PUSH2 0xAA5 PUSH2 0xAC5 JUMP JUMPDEST POP MUL SWAP1 JUMP JUMPDEST PUSH1 0x0 PUSH1 0x0 NOT DUP3 EQ ISZERO PUSH2 0xABE JUMPI PUSH2 0xABE PUSH2 0xAC5 JUMP JUMPDEST POP PUSH1 0x1 ADD SWAP1 JUMP JUMPDEST PUSH4 0x4E487B71 PUSH1 0xE0 SHL PUSH1 0x0 MSTORE PUSH1 0x11 PUSH1 0x4 MSTORE PUSH1 0x24 PUSH1 0x0 REVERT JUMPDEST PUSH4 0x4E487B71 PUSH1 0xE0 SHL PUSH1 0x0 MSTORE PUSH1 0x32 PUSH1 0x4 MSTORE PUSH1 0x24 PUSH1 0x0 REVERT JUMPDEST PUSH4 0x4E487B71 PUSH1 0xE0 SHL PUSH1 0x0 MSTORE PUSH1 0x41 PUSH1 0x4 MSTORE PUSH1 0x24 PUSH1 0x0 REVERT INVALID LOG2 PUSH5 0x6970667358 0x22 SLT KECCAK256 0xD6 SWAP15 0x28 LOG2 0x28 DUP11 SWAP10 0xE6 PUSH16 0xF6390ED2DBE13D38752A8F5A4D515F02 0xA5 PUSH26 0xBE89E99ED164736F6C6343000807003300000000000000000000 "},"methodIdentifiers":{"createWill(string,address,address[],uint256[])":"da4e83ff","deleteWill(string)":"47c8e847","executeWill(string)":"596798d4","getWill(string)":"bf06b8a8","validateWill(string)":"d05a91ad","wills(bytes32)":"d47a2a9e"}}}}}