{
  "_format": "hh-sol-artifact-1",
  "contractName": "Will",
  "sourceName": "contracts/Will.sol",
  "abi": [
    {
      "inputs": [],
      "stateMutability": "nonpayable",
      "type": "constructor"
    },
    {
      "stateMutability": "payable",
      "type": "fallback"
    },
    {
      "inputs": [
        {
          "internalType": "address",
          "name": "owner",
          "type": "address"
        },
        {
          "internalType": "string",
          "name": "title",
          "type": "string"
        },
        {
          "internalType": "uint256",
          "name": "createdAt",
          "type": "uint256"
        },
        {
          "internalType": "uint256",
          "name": "updatedAt",
          "type": "uint256"
        },
        {
          "internalType": "bool",
          "name": "isActive",
          "type": "bool"
        },
        {
          "internalType": "bool",
          "name": "isValidated",
          "type": "bool"
        },
        {
          "internalType": "uint256",
          "name": "deployedAt",
          "type": "uint256"
        },
        {
          "internalType": "string",
          "name": "deployedAtBlock",
          "type": "string"
        }
      ],
      "name": "createWill",
      "outputs": [],
      "stateMutability": "nonpayable",
      "type": "function"
    },
    {
      "inputs": [
        {
          "internalType": "uint256",
          "name": "id",
          "type": "uint256"
        }
      ],
      "name": "getWill",
      "outputs": [
        {
          "components": [
            {
              "internalType": "uint256",
              "name": "id",
              "type": "uint256"
            },
            {
              "internalType": "address",
              "name": "owner",
              "type": "address"
            },
            {
              "internalType": "string",
              "name": "title",
              "type": "string"
            },
            {
              "internalType": "uint256",
              "name": "createdAt",
              "type": "uint256"
            },
            {
              "internalType": "uint256",
              "name": "updatedAt",
              "type": "uint256"
            },
            {
              "internalType": "bool",
              "name": "isActive",
              "type": "bool"
            },
            {
              "internalType": "bool",
              "name": "isValidated",
              "type": "bool"
            },
            {
              "internalType": "uint256",
              "name": "deployedAt",
              "type": "uint256"
            },
            {
              "internalType": "string",
              "name": "deployedAtBlock",
              "type": "string"
            }
          ],
          "internalType": "struct Will.WillData",
          "name": "",
          "type": "tuple"
        }
      ],
      "stateMutability": "view",
      "type": "function"
    },
    {
      "inputs": [
        {
          "internalType": "uint256",
          "name": "id",
          "type": "uint256"
        },
        {
          "internalType": "string",
          "name": "newTitle",
          "type": "string"
        },
        {
          "internalType": "bool",
          "name": "newIsValidated",
          "type": "bool"
        }
      ],
      "name": "updateWill",
      "outputs": [],
      "stateMutability": "nonpayable",
      "type": "function"
    },
    {
      "inputs": [],
      "name": "willCount",
      "outputs": [
        {
          "internalType": "uint256",
          "name": "",
          "type": "uint256"
        }
      ],
      "stateMutability": "view",
      "type": "function"
    },
    {
      "inputs": [
        {
          "internalType": "uint256",
          "name": "",
          "type": "uint256"
        }
      ],
      "name": "wills",
      "outputs": [
        {
          "internalType": "uint256",
          "name": "id",
          "type": "uint256"
        },
        {
          "internalType": "address",
          "name": "owner",
          "type": "address"
        },
        {
          "internalType": "string",
          "name": "title",
          "type": "string"
        },
        {
          "internalType": "uint256",
          "name": "createdAt",
          "type": "uint256"
        },
        {
          "internalType": "uint256",
          "name": "updatedAt",
          "type": "uint256"
        },
        {
          "internalType": "bool",
          "name": "isActive",
          "type": "bool"
        },
        {
          "internalType": "bool",
          "name": "isValidated",
          "type": "bool"
        },
        {
          "internalType": "uint256",
          "name": "deployedAt",
          "type": "uint256"
        },
        {
          "internalType": "string",
          "name": "deployedAtBlock",
          "type": "string"
        }
      ],
      "stateMutability": "view",
      "type": "function"
    },
    {
      "stateMutability": "payable",
      "type": "receive"
    }
  ],
  "bytecode": "0x608060405234801561001057600080fd5b506000600181905550611012806100286000396000f3fe60806040526004361061004e5760003560e01c80634192bbb01461005757806364a73ea2146100945780638db7fbe7146100bd578063c80c910614610102578063ee1c2d941461012d57610055565b3661005557005b005b34801561006357600080fd5b5061007e60048036038101906100799190610861565b610156565b60405161008b9190610a5e565b60405180910390f35b3480156100a057600080fd5b506100bb60048036038101906100b69190610c0d565b61035b565b005b3480156100c957600080fd5b506100e460048036038101906100df9190610861565b6104da565b6040516100f999989796959493929190610d72565b60405180910390f35b34801561010e57600080fd5b50610117610672565b6040516101249190610e0d565b60405180910390f35b34801561013957600080fd5b50610154600480360381019061014f9190610e28565b610678565b005b61015e61070e565b60008083815260200190815260200160002060405180610120016040529081600082015481526020016001820160009054906101000a900473ffffffffffffffffffffffffffffffffffffffff1673ffffffffffffffffffffffffffffffffffffffff1673ffffffffffffffffffffffffffffffffffffffff1681526020016002820180546101ec90610ec6565b80601f016020809104026020016040519081016040528092919081815260200182805461021890610ec6565b80156102655780601f1061023a57610100808354040283529160200191610265565b820191906000526020600020905b81548152906001019060200180831161024857829003601f168201915b5050505050815260200160038201548152602001600482015481526020016005820160009054906101000a900460ff161515151581526020016005820160019054906101000a900460ff16151515158152602001600682015481526020016007820180546102d290610ec6565b80601f01602080910402602001604051908101604052809291908181526020018280546102fe90610ec6565b801561034b5780601f106103205761010080835404028352916020019161034b565b820191906000526020600020905b81548152906001019060200180831161032e57829003601f168201915b5050505050815250509050919050565b6001600081548092919061036e90610f27565b919050555060405180610120016040528060015481526020018973ffffffffffffffffffffffffffffffffffffffff168152602001888152602001878152602001868152602001851515815260200184151581526020018381526020018281525060008060015481526020019081526020016000206000820151816000015560208201518160010160006101000a81548173ffffffffffffffffffffffffffffffffffffffff021916908373ffffffffffffffffffffffffffffffffffffffff1602179055506040820151816002019080519060200190610450929190610774565b50606082015181600301556080820151816004015560a08201518160050160006101000a81548160ff02191690831515021790555060c08201518160050160016101000a81548160ff02191690831515021790555060e082015181600601556101008201518160070190805190602001906104cc929190610774565b509050505050505050505050565b60006020528060005260406000206000915090508060000154908060010160009054906101000a900473ffffffffffffffffffffffffffffffffffffffff169080600201805461052990610ec6565b80601f016020809104026020016040519081016040528092919081815260200182805461055590610ec6565b80156105a25780601f10610577576101008083540402835291602001916105a2565b820191906000526020600020905b81548152906001019060200180831161058557829003601f168201915b5050505050908060030154908060040154908060050160009054906101000a900460ff16908060050160019054906101000a900460ff16908060060154908060070180546105ef90610ec6565b80601f016020809104026020016040519081016040528092919081815260200182805461061b90610ec6565b80156106685780601f1061063d57610100808354040283529160200191610668565b820191906000526020600020905b81548152906001019060200180831161064b57829003601f168201915b5050505050905089565b60015481565b6001548311156106bd576040517f08c379a00000000000000000000000000000000000000000000000000000000081526004016106b490610fbc565b60405180910390fd5b60008060008581526020019081526020016000209050828160020190805190602001906106eb929190610774565b50818160050160016101000a81548160ff02191690831515021790555050505050565b60405180610120016040528060008152602001600073ffffffffffffffffffffffffffffffffffffffff16815260200160608152602001600081526020016000815260200160001515815260200160001515815260200160008152602001606081525090565b82805461078090610ec6565b90600052602060002090601f0160209004810192826107a257600085556107e9565b82601f106107bb57805160ff19168380011785556107e9565b828001600101855582156107e9579182015b828111156107e85782518255916020019190600101906107cd565b5b5090506107f691906107fa565b5090565b5b808211156108135760008160009055506001016107fb565b5090565b6000604051905090565b600080fd5b600080fd5b6000819050919050565b61083e8161082b565b811461084957600080fd5b50565b60008135905061085b81610835565b92915050565b60006020828403121561087757610876610821565b5b60006108858482850161084c565b91505092915050565b6108978161082b565b82525050565b600073ffffffffffffffffffffffffffffffffffffffff82169050919050565b60006108c88261089d565b9050919050565b6108d8816108bd565b82525050565b600081519050919050565b600082825260208201905092915050565b60005b838110156109185780820151818401526020810190506108fd565b83811115610927576000848401525b50505050565b6000601f19601f8301169050919050565b6000610949826108de565b61095381856108e9565b93506109638185602086016108fa565b61096c8161092d565b840191505092915050565b60008115159050919050565b61098c81610977565b82525050565b6000610120830160008301516109ab600086018261088e565b5060208301516109be60208601826108cf565b50604083015184820360408601526109d6828261093e565b91505060608301516109eb606086018261088e565b5060808301516109fe608086018261088e565b5060a0830151610a1160a0860182610983565b5060c0830151610a2460c0860182610983565b5060e0830151610a3760e086018261088e565b50610100830151848203610100860152610a51828261093e565b9150508091505092915050565b60006020820190508181036000830152610a788184610992565b905092915050565b610a89816108bd565b8114610a9457600080fd5b50565b600081359050610aa681610a80565b92915050565b600080fd5b600080fd5b7f4e487b7100000000000000000000000000000000000000000000000000000000600052604160045260246000fd5b610aee8261092d565b810181811067ffffffffffffffff82111715610b0d57610b0c610ab6565b5b80604052505050565b6000610b20610817565b9050610b2c8282610ae5565b919050565b600067ffffffffffffffff821115610b4c57610b4b610ab6565b5b610b558261092d565b9050602081019050919050565b82818337600083830152505050565b6000610b84610b7f84610b31565b610b16565b905082815260208101848484011115610ba057610b9f610ab1565b5b610bab848285610b62565b509392505050565b600082601f830112610bc857610bc7610aac565b5b8135610bd8848260208601610b71565b91505092915050565b610bea81610977565b8114610bf557600080fd5b50565b600081359050610c0781610be1565b92915050565b600080600080600080600080610100898b031215610c2e57610c2d610821565b5b6000610c3c8b828c01610a97565b985050602089013567ffffffffffffffff811115610c5d57610c5c610826565b5b610c698b828c01610bb3565b9750506040610c7a8b828c0161084c565b9650506060610c8b8b828c0161084c565b9550506080610c9c8b828c01610bf8565b94505060a0610cad8b828c01610bf8565b93505060c0610cbe8b828c0161084c565b92505060e089013567ffffffffffffffff811115610cdf57610cde610826565b5b610ceb8b828c01610bb3565b9150509295985092959890939650565b610d048161082b565b82525050565b610d13816108bd565b82525050565b600082825260208201905092915050565b6000610d35826108de565b610d3f8185610d19565b9350610d4f8185602086016108fa565b610d588161092d565b840191505092915050565b610d6c81610977565b82525050565b600061012082019050610d88600083018c610cfb565b610d95602083018b610d0a565b8181036040830152610da7818a610d2a565b9050610db66060830189610cfb565b610dc36080830188610cfb565b610dd060a0830187610d63565b610ddd60c0830186610d63565b610dea60e0830185610cfb565b818103610100830152610dfd8184610d2a565b90509a9950505050505050505050565b6000602082019050610e226000830184610cfb565b92915050565b600080600060608486031215610e4157610e40610821565b5b6000610e4f8682870161084c565b935050602084013567ffffffffffffffff811115610e7057610e6f610826565b5b610e7c86828701610bb3565b9250506040610e8d86828701610bf8565b9150509250925092565b7f4e487b7100000000000000000000000000000000000000000000000000000000600052602260045260246000fd5b60006002820490506001821680610ede57607f821691505b60208210811415610ef257610ef1610e97565b5b50919050565b7f4e487b7100000000000000000000000000000000000000000000000000000000600052601160045260246000fd5b6000610f328261082b565b91507fffffffffffffffffffffffffffffffffffffffffffffffffffffffffffffffff821415610f6557610f64610ef8565b5b600182019050919050565b7f496e76616c69642057696c6c2049440000000000000000000000000000000000600082015250565b6000610fa6600f83610d19565b9150610fb182610f70565b602082019050919050565b60006020820190508181036000830152610fd581610f99565b905091905056fea2646970667358221220fbb80e0b0309fc01803872c112ac34e632487d5cb4cd3add6cc4cdccc6cddb3b64736f6c63430008090033",
  "linkReferences": {},
  "deployedLinkReferences": {}
}