{
  "_format": "hh-sol-artifact-1",
  "contractName": "WillContract",
  "sourceName": "contracts/WillContract.sol",
  "abi": [
    {
      "inputs": [],
      "stateMutability": "nonpayable",
      "type": "constructor"
    },
    {
      "inputs": [
        {
          "internalType": "string",
          "name": "id",
          "type": "string"
        },
        {
          "internalType": "address",
          "name": "owner",
          "type": "address"
        },
        {
          "internalType": "address[]",
          "name": "_beneficiaries",
          "type": "address[]"
        },
        {
          "internalType": "uint256[]",
          "name": "_percentages",
          "type": "uint256[]"
        }
      ],
      "name": "createWill",
      "outputs": [],
      "stateMutability": "nonpayable",
      "type": "function"
    },
    {
      "inputs": [
        {
          "internalType": "string",
          "name": "id",
          "type": "string"
        }
      ],
      "name": "deleteWill",
      "outputs": [],
      "stateMutability": "nonpayable",
      "type": "function"
    },
    {
      "inputs": [
        {
          "internalType": "string",
          "name": "id",
          "type": "string"
        }
      ],
      "name": "executeWill",
      "outputs": [],
      "stateMutability": "payable",
      "type": "function"
    },
    {
      "inputs": [
        {
          "internalType": "string",
          "name": "id",
          "type": "string"
        }
      ],
      "name": "getWill",
      "outputs": [
        {
          "internalType": "address",
          "name": "owner",
          "type": "address"
        },
        {
          "internalType": "address[]",
          "name": "beneficiaries",
          "type": "address[]"
        },
        {
          "internalType": "uint256[]",
          "name": "percentages",
          "type": "uint256[]"
        },
        {
          "internalType": "bool",
          "name": "validated",
          "type": "bool"
        }
      ],
      "stateMutability": "view",
      "type": "function"
    },
    {
      "inputs": [
        {
          "internalType": "string",
          "name": "id",
          "type": "string"
        }
      ],
      "name": "validateWill",
      "outputs": [],
      "stateMutability": "nonpayable",
      "type": "function"
    },
    {
      "inputs": [
        {
          "internalType": "bytes32",
          "name": "",
          "type": "bytes32"
        }
      ],
      "name": "wills",
      "outputs": [
        {
          "internalType": "address",
          "name": "owner",
          "type": "address"
        },
        {
          "internalType": "bool",
          "name": "validated",
          "type": "bool"
        }
      ],
      "stateMutability": "view",
      "type": "function"
    },
    {
      "stateMutability": "payable",
      "type": "receive"
    }
  ],
  "bytecode": "0x608060405234801561001057600080fd5b50610b3d806100206000396000f3fe6080604052600436106100595760003560e01c806347c8e84714610065578063596798d414610087578063bf06b8a81461009a578063d05a91ad146100d3578063d47a2a9e146100f3578063da4e83ff1461015557600080fd5b3661006057005b600080fd5b34801561007157600080fd5b50610085610080366004610827565b610175565b005b610085610095366004610827565b6101ca565b3480156100a657600080fd5b506100ba6100b5366004610827565b610394565b6040516100ca949392919061095f565b60405180910390f35b3480156100df57600080fd5b506100856100ee366004610827565b610494565b3480156100ff57600080fd5b5061013661010e36600461080e565b600060208190529081526040902080546003909101546001600160a01b039091169060ff1682565b604080516001600160a01b0390931683529015156020830152016100ca565b34801561016157600080fd5b50610085610170366004610864565b6104bf565b60006101808261061d565b600081815260208190526040812080546001600160a01b03191681559192506101ac600183018261063a565b6101ba60028301600061063a565b50600301805460ff191690555050565b60006101d58261061d565b600081815260208190526040902060038101549192509060ff166102395760405162461bcd60e51b815260206004820152601660248201527515da5b1b081b5d5cdd081899481d985b1a59185d195960521b60448201526064015b60405180910390fd5b6000805b60028301548110156102885782600201818154811061025e5761025e610adb565b9060005260206000200154826102749190610a51565b91508061028081610aaa565b91505061023d565b50806064146102d95760405162461bcd60e51b815260206004820152601a60248201527f70657263656e7461676573206d75737420746f74616c203130300000000000006044820152606401610230565b60005b600183015481101561038d576000606484600201838154811061030157610301610adb565b9060005260206000200154476103179190610a8b565b6103219190610a69565b905083600101828154811061033857610338610adb565b60009182526020822001546040516001600160a01b039091169183156108fc02918491818181858888f19350505050158015610378573d6000803e3d6000fd5b5050808061038590610aaa565b9150506102dc565b5050505050565b60006060806000806103a58661061d565b600081815260208181526040918290208054600382015460018301805486518187028101870190975280875296975092956001600160a01b03909216949293600287019360ff90921692859183018282801561042a57602002820191906000526020600020905b81546001600160a01b0316815260019091019060200180831161040c575b505050505092508180548060200260200160405190810160405280929190818152602001828054801561047c57602002820191906000526020600020905b815481526020019060010190808311610468575b50505050509150955095509550955050509193509193565b600061049f8261061d565b6000908152602081905260409020600301805460ff191660011790555050565b60006104ca8561061d565b6000818152602081905260409020549091506001600160a01b0316156105325760405162461bcd60e51b815260206004820181905260248201527f57696c6c2077697468207468697320494420616c7265616479206578697374736044820152606401610230565b81518351146105785760405162461bcd60e51b8152602060048201526012602482015271496e76616c696420696e707574206461746160701b6044820152606401610230565b604080516080810182526001600160a01b038681168252602080830187815283850187905260006060850181905286815280835294909420835181546001600160a01b031916931692909217825592518051929391926105de926001850192019061065b565b50604082015180516105fa9160028401916020909101906106c0565b50606091909101516003909101805460ff19169115159190911790555050505050565b805160009082906106315750600092915050565b50506020015190565b508054600082559060005260206000209081019061065891906106fb565b50565b8280548282559060005260206000209081019282156106b0579160200282015b828111156106b057825182546001600160a01b0319166001600160a01b0390911617825560209092019160019091019061067b565b506106bc9291506106fb565b5090565b8280548282559060005260206000209081019282156106b0579160200282015b828111156106b05782518255916020019190600101906106e0565b5b808211156106bc57600081556001016106fc565b80356001600160a01b038116811461072757600080fd5b919050565b600082601f83011261073d57600080fd5b8135602061075261074d83610a2d565b6109fc565b80838252828201915082860187848660051b890101111561077257600080fd5b60005b8581101561079157813584529284019290840190600101610775565b5090979650505050505050565b600082601f8301126107af57600080fd5b813567ffffffffffffffff8111156107c9576107c9610af1565b6107dc601f8201601f19166020016109fc565b8181528460208386010111156107f157600080fd5b816020850160208301376000918101602001919091529392505050565b60006020828403121561082057600080fd5b5035919050565b60006020828403121561083957600080fd5b813567ffffffffffffffff81111561085057600080fd5b61085c8482850161079e565b949350505050565b6000806000806080858703121561087a57600080fd5b843567ffffffffffffffff8082111561089257600080fd5b61089e8883890161079e565b9550602091506108af828801610710565b94506040870135818111156108c357600080fd5b8701601f810189136108d457600080fd5b80356108e261074d82610a2d565b8082825285820191508584018c878560051b870101111561090257600080fd5b600094505b8385101561092c5761091881610710565b835260019490940193918601918601610907565b509650505050606087013591508082111561094657600080fd5b506109538782880161072c565b91505092959194509250565b6001600160a01b0385811682526080602080840182905286519184018290526000928782019290919060a0860190855b818110156109ad57855185168352948301949183019160010161098f565b5050858103604087015287518082529082019350915080870160005b838110156109e5578151855293820193908201906001016109c9565b505050508315156060840152905095945050505050565b604051601f8201601f1916810167ffffffffffffffff81118282101715610a2557610a25610af1565b604052919050565b600067ffffffffffffffff821115610a4757610a47610af1565b5060051b60200190565b60008219821115610a6457610a64610ac5565b500190565b600082610a8657634e487b7160e01b600052601260045260246000fd5b500490565b6000816000190483118215151615610aa557610aa5610ac5565b500290565b6000600019821415610abe57610abe610ac5565b5060010190565b634e487b7160e01b600052601160045260246000fd5b634e487b7160e01b600052603260045260246000fd5b634e487b7160e01b600052604160045260246000fdfea2646970667358221220d69e28a2288a99e66ff6390ed2dbe13d38752a8f5a4d515f02a579be89e99ed164736f6c63430008070033",
  "linkReferences": {},
  "deployedLinkReferences": {}
}