{
  "_format": "hh-sol-artifact-1",
  "contractName": "WillContract",
  "sourceName": "contracts/WillContract.sol",
  "abi": [
    {
      "inputs": [],
      "stateMutability": "nonpayable",
      "type": "constructor"
    },
    {
      "anonymous": false,
      "inputs": [
        {
          "indexed": true,
          "internalType": "string",
          "name": "willId",
          "type": "string"
        },
        {
          "indexed": true,
          "internalType": "address",
          "name": "owner",
          "type": "address"
        }
      ],
      "name": "WillAlreadyExists",
      "type": "event"
    },
    {
      "inputs": [
        {
          "internalType": "string",
          "name": "_willId",
          "type": "string"
        },
        {
          "components": [
            {
              "internalType": "address",
              "name": "beneficiaryAddress",
              "type": "address"
            },
            {
              "internalType": "uint256",
              "name": "percentage",
              "type": "uint256"
            }
          ],
          "internalType": "struct Beneficiary[]",
          "name": "_beneficiaries",
          "type": "tuple[]"
        }
      ],
      "name": "createWill",
      "outputs": [],
      "stateMutability": "payable",
      "type": "function"
    },
    {
      "inputs": [
        {
          "internalType": "string",
          "name": "_willId",
          "type": "string"
        }
      ],
      "name": "deleteWill",
      "outputs": [],
      "stateMutability": "nonpayable",
      "type": "function"
    },
    {
      "inputs": [
        {
          "internalType": "string",
          "name": "_willId",
          "type": "string"
        }
      ],
      "name": "disburse",
      "outputs": [],
      "stateMutability": "nonpayable",
      "type": "function"
    },
    {
      "inputs": [
        {
          "internalType": "string",
          "name": "_willId",
          "type": "string"
        }
      ],
      "name": "getWill",
      "outputs": [
        {
          "components": [
            {
              "internalType": "string",
              "name": "willId",
              "type": "string"
            },
            {
              "internalType": "address",
              "name": "ownerAddress",
              "type": "address"
            },
            {
              "internalType": "uint256",
              "name": "weiAmount",
              "type": "uint256"
            },
            {
              "components": [
                {
                  "internalType": "address",
                  "name": "beneficiaryAddress",
                  "type": "address"
                },
                {
                  "internalType": "uint256",
                  "name": "percentage",
                  "type": "uint256"
                }
              ],
              "internalType": "struct Beneficiary[]",
              "name": "beneficiaries",
              "type": "tuple[]"
            }
          ],
          "internalType": "struct Will",
          "name": "",
          "type": "tuple"
        }
      ],
      "stateMutability": "view",
      "type": "function"
    },
    {
      "inputs": [
        {
          "internalType": "string",
          "name": "_willId",
          "type": "string"
        },
        {
          "components": [
            {
              "internalType": "address",
              "name": "beneficiaryAddress",
              "type": "address"
            },
            {
              "internalType": "uint256",
              "name": "percentage",
              "type": "uint256"
            }
          ],
          "internalType": "struct Beneficiary[]",
          "name": "_newBeneficiaries",
          "type": "tuple[]"
        }
      ],
      "name": "updateWill",
      "outputs": [],
      "stateMutability": "payable",
      "type": "function"
    },
    {
      "inputs": [
        {
          "internalType": "string",
          "name": "_willId",
          "type": "string"
        },
        {
          "internalType": "uint256",
          "name": "_weiAmount",
          "type": "uint256"
        }
      ],
      "name": "withdraw",
      "outputs": [],
      "stateMutability": "nonpayable",
      "type": "function"
    },
    {
      "stateMutability": "payable",
      "type": "receive"
    }
  ],
  "bytecode": "0x608060405234801561001057600080fd5b50611106806100206000396000f3fe6080604052600436106100595760003560e01c806326813ba71461006557806330b39a621461007a57806347c8e8471461009a578063a14a0263146100ba578063bf06b8a8146100cd578063e0c012ae1461010357600080fd5b3661006057005b600080fd5b610078610073366004610d1d565b610123565b005b34801561008657600080fd5b50610078610095366004610e27565b61030f565b3480156100a657600080fd5b506100786100b5366004610ce0565b6104f7565b6100786100c8366004610d1d565b61059d565b3480156100d957600080fd5b506100ed6100e8366004610ce0565b610752565b6040516100fa9190610e88565b60405180910390f35b34801561010f57600080fd5b5061007861011e366004610ce0565b6108f5565b60006001600160a01b031660008360405161013e9190610e6c565b908152604051908190036020019020600101546001600160a01b031614156101f9576040513390610170908490610e6c565b604051908190038120907f0e979db4f91c6544819988796c2c17e63355457f19279e6d2af570489f4df64a90600090a360405162461bcd60e51b8152602060048201526024808201527f57696c6c20646f6573206e6f742065786973742c20457468657220726566756e6044820152633232b21760e11b60648201526084015b60405180910390fd5b341561023657346000836040516102109190610e6c565b908152602001604051809103902060020160008282546102309190610f9c565b90915550505b80511561030b5760008260405161024d9190610e6c565b9081526020016040518091039020600301600061026a9190610b53565b6000808360405161027b9190610e6c565b9081526020016040518091039020600301905060005b825181101561030857818382815181106102ad576102ad6110a4565b602090810291909101810151825460018082018555600094855293839020825160029092020180546001600160a01b0319166001600160a01b039092169190911781559101519101558061030081611073565b915050610291565b50505b5050565b60006001600160a01b031660008360405161032a9190610e6c565b908152604051908190036020019020600101546001600160a01b031614156103cb57604051339061035c908490610e6c565b604051908190038120907f0e979db4f91c6544819988796c2c17e63355457f19279e6d2af570489f4df64a90600090a360405162461bcd60e51b81526020600482015260146024820152732bb4b636103237b2b9903737ba1032bc34b9ba1760611b60448201526064016101f0565b600080836040516103dc9190610e6c565b9081526040519081900360200190206001810154909150336001600160a01b03909116146104575760405162461bcd60e51b815260206004820152602260248201527f4f6e6c7920746865206f776e65722063616e2077697468647261772066756e64604482015261399760f11b60648201526084016101f0565b80600201548211156104ab5760405162461bcd60e51b815260206004820152601f60248201527f496e73756666696369656e742066756e647320696e207468652077696c6c2e0060448201526064016101f0565b604051339083156108fc029084906000818181858888f193505050501580156104d8573d6000803e3d6000fd5b50818160020160008282546104ed9190610ff5565b9091555050505050565b60006001600160a01b03166000826040516105129190610e6c565b908152604051908190036020019020600101546001600160a01b0316141561054457604051339061035c908390610e6c565b6000816040516105549190610e6c565b908152604051908190036020019020600061056f8282610b77565b6001820180546001600160a01b0319169055600060028301819055610598906003840190610b53565b505050565b604051339060009081906105b2908690610e6c565b908152604051908190036020019020600101546001600160a01b03161461066f57806001600160a01b0316836040516105eb9190610e6c565b604051908190038120907f0e979db4f91c6544819988796c2c17e63355457f19279e6d2af570489f4df64a90600090a360405162461bcd60e51b8152602060048201526024808201527f57696c6c20616c7265616479206578697374732c20457468657220726566756e6044820152633232b21760e11b60648201526084016101f0565b600080846040516106809190610e6c565b90815260200160405180910390209050838160000190805190602001906106a8929190610bb1565b506001810180546001600160a01b0319166001600160a01b0384161790553460028201556003810160005b845181101561074a57818582815181106106ef576106ef6110a4565b602090810291909101810151825460018082018555600094855293839020825160029092020180546001600160a01b0319166001600160a01b039092169190911781559101519101558061074281611073565b9150506106d3565b505050505050565b61078660405180608001604052806060815260200160006001600160a01b0316815260200160008152602001606081525090565b6000826040516107969190610e6c565b90815260200160405180910390206040518060800160405290816000820180546107bf90611038565b80601f01602080910402602001604051908101604052809291908181526020018280546107eb90611038565b80156108385780601f1061080d57610100808354040283529160200191610838565b820191906000526020600020905b81548152906001019060200180831161081b57829003601f168201915b505050505081526020016001820160009054906101000a90046001600160a01b03166001600160a01b03166001600160a01b031681526020016002820154815260200160038201805480602002602001604051908101604052809291908181526020016000905b828210156108e7576000848152602090819020604080518082019091526002850290910180546001600160a01b0316825260019081015482840152908352909201910161089f565b505050915250909392505050565b60006001600160a01b03166000826040516109109190610e6c565b908152604051908190036020019020600101546001600160a01b0316141561094257604051339061035c908390610e6c565b600080826040516109539190610e6c565b90815260405190819003602001902060038101549091506109b65760405162461bcd60e51b815260206004820152601d60248201527f4e6f2062656e6566696369617269657320696e207468652077696c6c2e00000060448201526064016101f0565b6000805b6003830154811015610a0c578260030181815481106109db576109db6110a4565b906000526020600020906002020160010154826109f89190610f9c565b915080610a0481611073565b9150506109ba565b5080606414610a705760405162461bcd60e51b815260206004820152602a60248201527f42656e65666963696172792070657263656e746167657320646f206e6f7420736044820152693ab6903a37901898181760b11b60648201526084016101f0565b60005b6003830154811015610b46576000836003018281548110610a9657610a966110a4565b600091825260208220600290910201546003860180546001600160a01b03909216935060649185908110610acc57610acc6110a4565b9060005260206000209060020201600101548660020154610aed9190610fd6565b610af79190610fb4565b6040519091506001600160a01b0383169082156108fc029083906000818181858888f19350505050158015610b30573d6000803e3d6000fd5b5050508080610b3e90611073565b915050610a73565b5050600060029091015550565b5080546000825560020290600052602060002090810190610b749190610c35565b50565b508054610b8390611038565b6000825580601f10610b93575050565b601f016020900490600052602060002090810190610b749190610c5b565b828054610bbd90611038565b90600052602060002090601f016020900481019282610bdf5760008555610c25565b82601f10610bf857805160ff1916838001178555610c25565b82800160010185558215610c25579182015b82811115610c25578251825591602001919060010190610c0a565b50610c31929150610c5b565b5090565b5b80821115610c315780546001600160a01b031916815560006001820155600201610c36565b5b80821115610c315760008155600101610c5c565b600082601f830112610c8157600080fd5b813567ffffffffffffffff811115610c9b57610c9b6110ba565b610cae601f8201601f1916602001610f6b565b818152846020838601011115610cc357600080fd5b816020850160208301376000918101602001919091529392505050565b600060208284031215610cf257600080fd5b813567ffffffffffffffff811115610d0957600080fd5b610d1584828501610c70565b949350505050565b6000806040808486031215610d3157600080fd5b833567ffffffffffffffff80821115610d4957600080fd5b610d5587838801610c70565b9450602091508186013581811115610d6c57600080fd5b8601601f81018813610d7d57600080fd5b803582811115610d8f57610d8f6110ba565b610d9d848260051b01610f6b565b8181528481019350828501600683901b840186018b1015610dbd57600080fd5b600093505b82841015610e165786818c031215610dd957600080fd5b610de1610f42565b81356001600160a01b0381168114610df857600080fd5b81528187013587820152855293850193600193909301928601610dc2565b508096505050505050509250929050565b60008060408385031215610e3a57600080fd5b823567ffffffffffffffff811115610e5157600080fd5b610e5d85828601610c70565b95602094909401359450505050565b60008251610e7e81846020870161100c565b9190910192915050565b60006020808352835160808285015280518060a0860152610eaf8160c0870185850161100c565b858301516001600160a01b0390811660408088019190915280880151606080890191909152880151601f93909301601f1916870187810360a0016080890152835160c082018190528487019550600094939160e001905b80861015610f3457865180518416835288810151898401529688019660019690960195945090830190610f06565b509998505050505050505050565b6040805190810167ffffffffffffffff81118282101715610f6557610f656110ba565b60405290565b604051601f8201601f1916810167ffffffffffffffff81118282101715610f9457610f946110ba565b604052919050565b60008219821115610faf57610faf61108e565b500190565b600082610fd157634e487b7160e01b600052601260045260246000fd5b500490565b6000816000190483118215151615610ff057610ff061108e565b500290565b6000828210156110075761100761108e565b500390565b60005b8381101561102757818101518382015260200161100f565b838111156103085750506000910152565b600181811c9082168061104c57607f821691505b6020821081141561106d57634e487b7160e01b600052602260045260246000fd5b50919050565b60006000198214156110875761108761108e565b5060010190565b634e487b7160e01b600052601160045260246000fd5b634e487b7160e01b600052603260045260246000fd5b634e487b7160e01b600052604160045260246000fdfea2646970667358221220575da2a3bc313dfad3ce0fc2c7dd88b48bd981a58cd5bf90ae77414b98889fbd64736f6c63430008070033",
  "linkReferences": {},
  "deployedLinkReferences": {}
}