{
  "_format": "hh-sol-artifact-1",
  "contractName": "WillContract",
  "sourceName": "contracts/WillContract.sol",
  "abi": [
    {
      "inputs": [],
      "stateMutability": "nonpayable",
      "type": "constructor"
    },
    {
      "inputs": [
        {
          "internalType": "string",
          "name": "id",
          "type": "string"
        },
        {
          "internalType": "address[]",
          "name": "_beneficiaries",
          "type": "address[]"
        },
        {
          "internalType": "uint256[]",
          "name": "_percentages",
          "type": "uint256[]"
        }
      ],
      "name": "createWill",
      "outputs": [],
      "stateMutability": "nonpayable",
      "type": "function"
    },
    {
      "inputs": [
        {
          "internalType": "string",
          "name": "id",
          "type": "string"
        }
      ],
      "name": "executeWill",
      "outputs": [],
      "stateMutability": "payable",
      "type": "function"
    },
    {
      "inputs": [
        {
          "internalType": "string",
          "name": "id",
          "type": "string"
        }
      ],
      "name": "validateWill",
      "outputs": [],
      "stateMutability": "nonpayable",
      "type": "function"
    },
    {
      "inputs": [
        {
          "internalType": "bytes32",
          "name": "",
          "type": "bytes32"
        }
      ],
      "name": "wills",
      "outputs": [
        {
          "internalType": "address",
          "name": "owner",
          "type": "address"
        },
        {
          "internalType": "bool",
          "name": "validated",
          "type": "bool"
        }
      ],
      "stateMutability": "view",
      "type": "function"
    },
    {
      "stateMutability": "payable",
      "type": "receive"
    }
  ],
  "bytecode": "0x608060405234801561001057600080fd5b50610918806100206000396000f3fe6080604052600436106100435760003560e01c8063596798d41461004f578063764834b714610064578063d05a91ad14610084578063d47a2a9e146100a457600080fd5b3661004a57005b600080fd5b61006261005d3660046106a2565b61010a565b005b34801561007057600080fd5b5061006261007f3660046106df565b6102d4565b34801561009057600080fd5b5061006261009f3660046106a2565b61042c565b3480156100b057600080fd5b506100e76100bf366004610689565b600060208190529081526040902080546003909101546001600160a01b039091169060ff1682565b604080516001600160a01b03909316835290151560208301520160405180910390f35b6000610115826104d5565b600081815260208190526040902060038101549192509060ff166101795760405162461bcd60e51b815260206004820152601660248201527515da5b1b081b5d5cdd081899481d985b1a59185d195960521b60448201526064015b60405180910390fd5b6000805b60028301548110156101c85782600201818154811061019e5761019e6108b6565b9060005260206000200154826101b4919061082c565b9150806101c081610885565b91505061017d565b50806064146102195760405162461bcd60e51b815260206004820152601a60248201527f70657263656e7461676573206d75737420746f74616c203130300000000000006044820152606401610170565b60005b60018301548110156102cd5760006064846002018381548110610241576102416108b6565b9060005260206000200154476102579190610866565b6102619190610844565b9050836001018281548110610278576102786108b6565b60009182526020822001546040516001600160a01b039091169183156108fc02918491818181858888f193505050501580156102b8573d6000803e3d6000fd5b505080806102c590610885565b91505061021c565b5050505050565b60006102df846104d5565b6000818152602081905260409020549091506001600160a01b0316156103475760405162461bcd60e51b815260206004820181905260248201527f57696c6c2077697468207468697320494420616c7265616479206578697374736044820152606401610170565b815183511461038d5760405162461bcd60e51b8152602060048201526012602482015271496e76616c696420696e707574206461746160701b6044820152606401610170565b60408051608081018252338152602080820186815282840186905260006060840181905285815280835293909320825181546001600160a01b0319166001600160a01b03909116178155925180519293926103ee92600185019201906104f2565b506040820151805161040a916002840191602090910190610557565b50606091909101516003909101805460ff191691151591909117905550505050565b610435816104d5565b6000818152602081905260409020546001600160a01b031633146104a95760405162461bcd60e51b815260206004820152602560248201527f4f6e6c7920746865206f776e65722063616e2063616c6c20746869732066756e60448201526431ba34b7b760d91b6064820152608401610170565b60006104b4836104d5565b6000908152602081905260409020600301805460ff19166001179055505050565b805160009082906104e95750600092915050565b50506020015190565b828054828255906000526020600020908101928215610547579160200282015b8281111561054757825182546001600160a01b0319166001600160a01b03909116178255602090920191600190910190610512565b50610553929150610592565b5090565b828054828255906000526020600020908101928215610547579160200282015b82811115610547578251825591602001919060010190610577565b5b808211156105535760008155600101610593565b600082601f8301126105b857600080fd5b813560206105cd6105c883610808565b6107d7565b80838252828201915082860187848660051b89010111156105ed57600080fd5b60005b8581101561060c578135845292840192908401906001016105f0565b5090979650505050505050565b600082601f83011261062a57600080fd5b813567ffffffffffffffff811115610644576106446108cc565b610657601f8201601f19166020016107d7565b81815284602083860101111561066c57600080fd5b816020850160208301376000918101602001919091529392505050565b60006020828403121561069b57600080fd5b5035919050565b6000602082840312156106b457600080fd5b813567ffffffffffffffff8111156106cb57600080fd5b6106d784828501610619565b949350505050565b6000806000606084860312156106f457600080fd5b833567ffffffffffffffff8082111561070c57600080fd5b61071887838801610619565b945060209150818601358181111561072f57600080fd5b8601601f8101881361074057600080fd5b803561074e6105c882610808565b8082825285820191508584018b878560051b870101111561076e57600080fd5b600094505b838510156107a65780356001600160a01b038116811461079257600080fd5b835260019490940193918601918601610773565b50965050505060408601359150808211156107c057600080fd5b506107cd868287016105a7565b9150509250925092565b604051601f8201601f1916810167ffffffffffffffff81118282101715610800576108006108cc565b604052919050565b600067ffffffffffffffff821115610822576108226108cc565b5060051b60200190565b6000821982111561083f5761083f6108a0565b500190565b60008261086157634e487b7160e01b600052601260045260246000fd5b500490565b6000816000190483118215151615610880576108806108a0565b500290565b6000600019821415610899576108996108a0565b5060010190565b634e487b7160e01b600052601160045260246000fd5b634e487b7160e01b600052603260045260246000fd5b634e487b7160e01b600052604160045260246000fdfea2646970667358221220112c6c34410cd4d43da98d99778bf22120ece1ca34359cacb4351524658bc2ec64736f6c63430008070033",
  "linkReferences": {},
  "deployedLinkReferences": {}
}