{
  "_format": "hh-sol-artifact-1",
  "contractName": "WillContract",
  "sourceName": "contracts/WillContract.sol",
  "abi": [
    {
      "inputs": [],
      "stateMutability": "nonpayable",
      "type": "constructor"
    },
    {
      "inputs": [
        {
          "internalType": "string",
          "name": "id",
          "type": "string"
        },
        {
          "internalType": "address",
          "name": "owner",
          "type": "address"
        },
        {
          "internalType": "address[]",
          "name": "_beneficiaries",
          "type": "address[]"
        },
        {
          "internalType": "uint256[]",
          "name": "_percentages",
          "type": "uint256[]"
        }
      ],
      "name": "createWill",
      "outputs": [],
      "stateMutability": "nonpayable",
      "type": "function"
    },
    {
      "inputs": [
        {
          "internalType": "string",
          "name": "id",
          "type": "string"
        }
      ],
      "name": "deleteWill",
      "outputs": [],
      "stateMutability": "nonpayable",
      "type": "function"
    },
    {
      "inputs": [
        {
          "internalType": "string",
          "name": "id",
          "type": "string"
        }
      ],
      "name": "executeWill",
      "outputs": [],
      "stateMutability": "payable",
      "type": "function"
    },
    {
      "inputs": [
        {
          "internalType": "string",
          "name": "id",
          "type": "string"
        }
      ],
      "name": "getWill",
      "outputs": [
        {
          "internalType": "address",
          "name": "owner",
          "type": "address"
        },
        {
          "internalType": "address[]",
          "name": "beneficiaries",
          "type": "address[]"
        },
        {
          "internalType": "uint256[]",
          "name": "percentages",
          "type": "uint256[]"
        },
        {
          "internalType": "bool",
          "name": "validated",
          "type": "bool"
        }
      ],
      "stateMutability": "view",
      "type": "function"
    },
    {
      "inputs": [
        {
          "internalType": "string",
          "name": "id",
          "type": "string"
        }
      ],
      "name": "validateWill",
      "outputs": [],
      "stateMutability": "nonpayable",
      "type": "function"
    },
    {
      "inputs": [
        {
          "internalType": "bytes32",
          "name": "",
          "type": "bytes32"
        }
      ],
      "name": "wills",
      "outputs": [
        {
          "internalType": "address",
          "name": "owner",
          "type": "address"
        },
        {
          "internalType": "bool",
          "name": "validated",
          "type": "bool"
        }
      ],
      "stateMutability": "view",
      "type": "function"
    },
    {
      "stateMutability": "payable",
      "type": "receive"
    }
  ],
  "bytecode": "0x608060405234801561001057600080fd5b50610bb0806100206000396000f3fe6080604052600436106100595760003560e01c806347c8e84714610065578063596798d414610087578063bf06b8a81461009a578063d05a91ad146100d3578063d47a2a9e146100f3578063da4e83ff1461015557600080fd5b3661006057005b600080fd5b34801561007157600080fd5b5061008561008036600461089a565b610175565b005b61008561009536600461089a565b610242565b3480156100a657600080fd5b506100ba6100b536600461089a565b610407565b6040516100ca94939291906109d2565b60405180910390f35b3480156100df57600080fd5b506100856100ee36600461089a565b610507565b3480156100ff57600080fd5b5061013661010e366004610881565b600060208190529081526040902080546003909101546001600160a01b039091169060ff1682565b604080516001600160a01b0390931683529015156020830152016100ca565b34801561016157600080fd5b506100856101703660046108d7565b610532565b600061018082610690565b6000818152602081905260409020549091506001600160a01b031633146101fa5760405162461bcd60e51b815260206004820152602360248201527f4f6e6c7920746865206f776e65722063616e2064656c657465207468697320776044820152621a5b1b60ea1b60648201526084015b60405180910390fd5b600081815260208190526040812080546001600160a01b03191681559061022460018301826106ad565b6102326002830160006106ad565b50600301805460ff191690555050565b600061024d82610690565b600081815260208190526040902060038101549192509060ff166102ac5760405162461bcd60e51b815260206004820152601660248201527515da5b1b081b5d5cdd081899481d985b1a59185d195960521b60448201526064016101f1565b6000805b60028301548110156102fb578260020181815481106102d1576102d1610b4e565b9060005260206000200154826102e79190610ac4565b9150806102f381610b1d565b9150506102b0565b508060641461034c5760405162461bcd60e51b815260206004820152601a60248201527f70657263656e7461676573206d75737420746f74616c2031303000000000000060448201526064016101f1565b60005b6001830154811015610400576000606484600201838154811061037457610374610b4e565b90600052602060002001544761038a9190610afe565b6103949190610adc565b90508360010182815481106103ab576103ab610b4e565b60009182526020822001546040516001600160a01b039091169183156108fc02918491818181858888f193505050501580156103eb573d6000803e3d6000fd5b505080806103f890610b1d565b91505061034f565b5050505050565b600060608060008061041886610690565b600081815260208181526040918290208054600382015460018301805486518187028101870190975280875296975092956001600160a01b03909216949293600287019360ff90921692859183018282801561049d57602002820191906000526020600020905b81546001600160a01b0316815260019091019060200180831161047f575b50505050509250818054806020026020016040519081016040528092919081815260200182805480156104ef57602002820191906000526020600020905b8154815260200190600101908083116104db575b50505050509150955095509550955050509193509193565b600061051282610690565b6000908152602081905260409020600301805460ff191660011790555050565b600061053d85610690565b6000818152602081905260409020549091506001600160a01b0316156105a55760405162461bcd60e51b815260206004820181905260248201527f57696c6c2077697468207468697320494420616c72656164792065786973747360448201526064016101f1565b81518351146105eb5760405162461bcd60e51b8152602060048201526012602482015271496e76616c696420696e707574206461746160701b60448201526064016101f1565b604080516080810182526001600160a01b038681168252602080830187815283850187905260006060850181905286815280835294909420835181546001600160a01b0319169316929092178255925180519293919261065192600185019201906106ce565b506040820151805161066d916002840191602090910190610733565b50606091909101516003909101805460ff19169115159190911790555050505050565b805160009082906106a45750600092915050565b50506020015190565b50805460008255906000526020600020908101906106cb919061076e565b50565b828054828255906000526020600020908101928215610723579160200282015b8281111561072357825182546001600160a01b0319166001600160a01b039091161782556020909201916001909101906106ee565b5061072f92915061076e565b5090565b828054828255906000526020600020908101928215610723579160200282015b82811115610723578251825591602001919060010190610753565b5b8082111561072f576000815560010161076f565b80356001600160a01b038116811461079a57600080fd5b919050565b600082601f8301126107b057600080fd5b813560206107c56107c083610aa0565b610a6f565b80838252828201915082860187848660051b89010111156107e557600080fd5b60005b85811015610804578135845292840192908401906001016107e8565b5090979650505050505050565b600082601f83011261082257600080fd5b813567ffffffffffffffff81111561083c5761083c610b64565b61084f601f8201601f1916602001610a6f565b81815284602083860101111561086457600080fd5b816020850160208301376000918101602001919091529392505050565b60006020828403121561089357600080fd5b5035919050565b6000602082840312156108ac57600080fd5b813567ffffffffffffffff8111156108c357600080fd5b6108cf84828501610811565b949350505050565b600080600080608085870312156108ed57600080fd5b843567ffffffffffffffff8082111561090557600080fd5b61091188838901610811565b955060209150610922828801610783565b945060408701358181111561093657600080fd5b8701601f8101891361094757600080fd5b80356109556107c082610aa0565b8082825285820191508584018c878560051b870101111561097557600080fd5b600094505b8385101561099f5761098b81610783565b83526001949094019391860191860161097a565b50965050505060608701359150808211156109b957600080fd5b506109c68782880161079f565b91505092959194509250565b6001600160a01b0385811682526080602080840182905286519184018290526000928782019290919060a0860190855b81811015610a20578551851683529483019491830191600101610a02565b5050858103604087015287518082529082019350915080870160005b83811015610a5857815185529382019390820190600101610a3c565b505050508315156060840152905095945050505050565b604051601f8201601f1916810167ffffffffffffffff81118282101715610a9857610a98610b64565b604052919050565b600067ffffffffffffffff821115610aba57610aba610b64565b5060051b60200190565b60008219821115610ad757610ad7610b38565b500190565b600082610af957634e487b7160e01b600052601260045260246000fd5b500490565b6000816000190483118215151615610b1857610b18610b38565b500290565b6000600019821415610b3157610b31610b38565b5060010190565b634e487b7160e01b600052601160045260246000fd5b634e487b7160e01b600052603260045260246000fd5b634e487b7160e01b600052604160045260246000fdfea2646970667358221220c6b95d23277317ef805f86ff58281840742e00c15b6f63f489cd6b1e13fac54e64736f6c63430008070033",
  "linkReferences": {},
  "deployedLinkReferences": {}
}