{
  "_format": "hh-sol-artifact-1",
  "contractName": "WillContract",
  "sourceName": "contracts/WillContract.sol",
  "abi": [
    {
      "inputs": [],
      "stateMutability": "nonpayable",
      "type": "constructor"
    },
    {
      "inputs": [
        {
          "internalType": "string",
          "name": "id",
          "type": "string"
        },
        {
          "internalType": "address[]",
          "name": "_beneficiaries",
          "type": "address[]"
        },
        {
          "internalType": "uint256[]",
          "name": "_percentages",
          "type": "uint256[]"
        }
      ],
      "name": "createWill",
      "outputs": [],
      "stateMutability": "nonpayable",
      "type": "function"
    },
    {
      "inputs": [
        {
          "internalType": "string",
          "name": "id",
          "type": "string"
        }
      ],
      "name": "deleteWill",
      "outputs": [],
      "stateMutability": "nonpayable",
      "type": "function"
    },
    {
      "inputs": [
        {
          "internalType": "string",
          "name": "id",
          "type": "string"
        }
      ],
      "name": "executeWill",
      "outputs": [],
      "stateMutability": "payable",
      "type": "function"
    },
    {
      "inputs": [
        {
          "internalType": "string",
          "name": "id",
          "type": "string"
        }
      ],
      "name": "getWill",
      "outputs": [
        {
          "internalType": "address",
          "name": "owner",
          "type": "address"
        },
        {
          "internalType": "address[]",
          "name": "beneficiaries",
          "type": "address[]"
        },
        {
          "internalType": "uint256[]",
          "name": "percentages",
          "type": "uint256[]"
        },
        {
          "internalType": "bool",
          "name": "validated",
          "type": "bool"
        }
      ],
      "stateMutability": "view",
      "type": "function"
    },
    {
      "inputs": [
        {
          "internalType": "string",
          "name": "id",
          "type": "string"
        }
      ],
      "name": "validateWill",
      "outputs": [],
      "stateMutability": "nonpayable",
      "type": "function"
    },
    {
      "inputs": [
        {
          "internalType": "bytes32",
          "name": "",
          "type": "bytes32"
        }
      ],
      "name": "wills",
      "outputs": [
        {
          "internalType": "address",
          "name": "owner",
          "type": "address"
        },
        {
          "internalType": "bool",
          "name": "validated",
          "type": "bool"
        }
      ],
      "stateMutability": "view",
      "type": "function"
    },
    {
      "stateMutability": "payable",
      "type": "receive"
    }
  ],
  "bytecode": "0x608060405234801561001057600080fd5b50610c09806100206000396000f3fe6080604052600436106100595760003560e01c806347c8e84714610065578063596798d414610087578063764834b71461009a578063bf06b8a8146100ba578063d05a91ad146100f3578063d47a2a9e1461011357600080fd5b3661006057005b600080fd5b34801561007157600080fd5b506100856100803660046108f6565b610175565b005b6100856100953660046108f6565b610242565b3480156100a657600080fd5b506100856100b5366004610933565b610407565b3480156100c657600080fd5b506100da6100d53660046108f6565b61055f565b6040516100ea9493929190610a2b565b60405180910390f35b3480156100ff57600080fd5b5061008561010e3660046108f6565b61065f565b34801561011f57600080fd5b5061015661012e3660046108dd565b600060208190529081526040902080546003909101546001600160a01b039091169060ff1682565b604080516001600160a01b0390931683529015156020830152016100ea565b600061018082610708565b6000818152602081905260409020549091506001600160a01b031633146101fa5760405162461bcd60e51b815260206004820152602360248201527f4f6e6c7920746865206f776e65722063616e2064656c657465207468697320776044820152621a5b1b60ea1b60648201526084015b60405180910390fd5b600081815260208190526040812080546001600160a01b0319168155906102246001830182610725565b610232600283016000610725565b50600301805460ff191690555050565b600061024d82610708565b600081815260208190526040902060038101549192509060ff166102ac5760405162461bcd60e51b815260206004820152601660248201527515da5b1b081b5d5cdd081899481d985b1a59185d195960521b60448201526064016101f1565b6000805b60028301548110156102fb578260020181815481106102d1576102d1610ba7565b9060005260206000200154826102e79190610b1d565b9150806102f381610b76565b9150506102b0565b508060641461034c5760405162461bcd60e51b815260206004820152601a60248201527f70657263656e7461676573206d75737420746f74616c2031303000000000000060448201526064016101f1565b60005b6001830154811015610400576000606484600201838154811061037457610374610ba7565b90600052602060002001544761038a9190610b57565b6103949190610b35565b90508360010182815481106103ab576103ab610ba7565b60009182526020822001546040516001600160a01b039091169183156108fc02918491818181858888f193505050501580156103eb573d6000803e3d6000fd5b505080806103f890610b76565b91505061034f565b5050505050565b600061041284610708565b6000818152602081905260409020549091506001600160a01b03161561047a5760405162461bcd60e51b815260206004820181905260248201527f57696c6c2077697468207468697320494420616c72656164792065786973747360448201526064016101f1565b81518351146104c05760405162461bcd60e51b8152602060048201526012602482015271496e76616c696420696e707574206461746160701b60448201526064016101f1565b60408051608081018252338152602080820186815282840186905260006060840181905285815280835293909320825181546001600160a01b0319166001600160a01b03909116178155925180519293926105219260018501920190610746565b506040820151805161053d9160028401916020909101906107ab565b50606091909101516003909101805460ff191691151591909117905550505050565b600060608060008061057086610708565b600081815260208181526040918290208054600382015460018301805486518187028101870190975280875296975092956001600160a01b03909216949293600287019360ff9092169285918301828280156105f557602002820191906000526020600020905b81546001600160a01b031681526001909101906020018083116105d7575b505050505092508180548060200260200160405190810160405280929190818152602001828054801561064757602002820191906000526020600020905b815481526020019060010190808311610633575b50505050509150955095509550955050509193509193565b61066881610708565b6000818152602081905260409020546001600160a01b031633146106dc5760405162461bcd60e51b815260206004820152602560248201527f4f6e6c7920746865206f776e65722063616e2063616c6c20746869732066756e60448201526431ba34b7b760d91b60648201526084016101f1565b60006106e783610708565b6000908152602081905260409020600301805460ff19166001179055505050565b8051600090829061071c5750600092915050565b50506020015190565b508054600082559060005260206000209081019061074391906107e6565b50565b82805482825590600052602060002090810192821561079b579160200282015b8281111561079b57825182546001600160a01b0319166001600160a01b03909116178255602090920191600190910190610766565b506107a79291506107e6565b5090565b82805482825590600052602060002090810192821561079b579160200282015b8281111561079b5782518255916020019190600101906107cb565b5b808211156107a757600081556001016107e7565b600082601f83011261080c57600080fd5b8135602061082161081c83610af9565b610ac8565b80838252828201915082860187848660051b890101111561084157600080fd5b60005b8581101561086057813584529284019290840190600101610844565b5090979650505050505050565b600082601f83011261087e57600080fd5b813567ffffffffffffffff81111561089857610898610bbd565b6108ab601f8201601f1916602001610ac8565b8181528460208386010111156108c057600080fd5b816020850160208301376000918101602001919091529392505050565b6000602082840312156108ef57600080fd5b5035919050565b60006020828403121561090857600080fd5b813567ffffffffffffffff81111561091f57600080fd5b61092b8482850161086d565b949350505050565b60008060006060848603121561094857600080fd5b833567ffffffffffffffff8082111561096057600080fd5b61096c8783880161086d565b945060209150818601358181111561098357600080fd5b8601601f8101881361099457600080fd5b80356109a261081c82610af9565b8082825285820191508584018b878560051b87010111156109c257600080fd5b600094505b838510156109fa5780356001600160a01b03811681146109e657600080fd5b8352600194909401939186019186016109c7565b5096505050506040860135915080821115610a1457600080fd5b50610a21868287016107fb565b9150509250925092565b6001600160a01b0385811682526080602080840182905286519184018290526000928782019290919060a0860190855b81811015610a79578551851683529483019491830191600101610a5b565b5050858103604087015287518082529082019350915080870160005b83811015610ab157815185529382019390820190600101610a95565b505050508315156060840152905095945050505050565b604051601f8201601f1916810167ffffffffffffffff81118282101715610af157610af1610bbd565b604052919050565b600067ffffffffffffffff821115610b1357610b13610bbd565b5060051b60200190565b60008219821115610b3057610b30610b91565b500190565b600082610b5257634e487b7160e01b600052601260045260246000fd5b500490565b6000816000190483118215151615610b7157610b71610b91565b500290565b6000600019821415610b8a57610b8a610b91565b5060010190565b634e487b7160e01b600052601160045260246000fd5b634e487b7160e01b600052603260045260246000fd5b634e487b7160e01b600052604160045260246000fdfea2646970667358221220ada998a5ec35ba4ca58b1a296b478bc7c02ce21b01f536c1dba9d598355fcb8564736f6c63430008070033",
  "linkReferences": {},
  "deployedLinkReferences": {}
}